:020000040800F2
:1000000060040020212B0008F5230008B309000834
:10001000092C0008092C0008092C00080000000029
:10002000000000000000000000000000092C000893
:10003000092C000800000000092C0008ED2200082F
:10004000092C0008092C0008092C0008092C0008BC
:10005000092C0008092C0008092C0008092C0008AC
:10006000092C0008092C0008092C0008092C00089C
:10007000092C0008092C0008092C0008092C00088C
:10008000092C0008092C0008092C0008092C00087C
:10009000092C0008092C0008092C0008092C00086C
:1000A000092C0008092C0008092C00080000000099
:1000B000000000000000000000000000092C000803
:1000C000092C000800000000FF1F0008092C000890
:1000D000092C0008092C0008092C0008092C00082C
:1000E000092C000800000000092C0008092C000859
:1000F000092C0008092C0008092C0008092C00080C
:10010000092C0008092C000800000000092C000838
:10011000092C000800000000092C0008092C000828
:10012000092C0008092C0008092C0008092C0008DB
:100130000000000000000000092C0008092C000845
:10014000092C0008092C0008092C0008092C0008BB
:1001500000000000092C0008000000000000000062
:10016000092C0008092C0008092C0008092C00089B
:10017000092C0008092C0008092C0008092C00088B
:10018000092C0008092C00080000000000000000F5
:100190000000000000000000092C0008092C0008E5
:1001A000092C0008DFF8C011086850F08060086072
:1001B0007047DFF8B4010068C00E10F0010070470E
:1001C000DFF8A811086850F0010008607047DFF8F8
:1001D0009C010068000910F001007047DFF88C11E5
:1001E000086850F4807008607047DFF8800100688C
:1001F000000B10F001007047DFF870010068400B41
:1002000010F001007047DFF864010068800B10F007
:100210000100704730B4DFF8BC522C68DFF8BC3204
:100220001C4004430C4314432C6030BC704781B025
:10023000DFF8A4321B680093009B13F04053036067
:10024000009B13F4E0030B60009B13F44033136036
:1002500001B07047DFF80423116889088900014361
:1002600011607047DFF8F402006810F01800704762
:10027000DFF8EC02006810F00F007047DFF8E402CE
:10028000006810F040407047DFF8D4321A68DFF899
:10029000D8120A4002431A607047DFF8E42211685E
:1002A00031F04061014311607047DFF8B8221168F6
:1002B00031F44061014311607047DFF8A8221168F2
:1002C00031F4E041014311607047DFF89C20116870
:1002D00031F44071014311607047DFF88C00006811
:1002E00010F440707047DFF88010086850F4004048
:1002F00008607047DFF87010086850F480300860BC
:100300007047DFF86410086830F480300860704788
:10031000DFF87002006810F0010090F001007047F3
:1003200080B5FFF7E7FFFFF7ECFF01BD80B5FFF7F2
:1003300047FF01220221DFF8500200F056F902BD0A
:1003400080B5FFF72FFF01225021DFF8400200F0B7
:100350004CF902BD80B5FFF741FF01220221DFF811
:10036000300200F042F902BDF00C0244000C0244DD
:10037000F8B50700FFF739FF0400FFF73DFF050060
:10038000FFF741FF060055EA04003043002807D17B
:100390003A687968B868FFF73DFF5FF0EA3001E03E
:1003A0005FF0F530F2BD1FB5040002AA01A968464E
:1003B000FFF73DFF02982060019860600098A06000
:1003C0001FBD70B504005FF0EA352000C0B2FFF732
:1003D00041FF00F03BF9060000F010F82100C9B21F
:1003E000884209D000F032F9801B41F289318842FD
:1003F000F2D35FF0F5300500280070BD80B5FFF73F
:1004000031FFC008C0B202BD10B504002078617889
:100410000843A17850EA0110E17850EA0120FFF783
:1004200033FF5FF0EA3010BDE0B56846FFF7BBFF71
:100430000098B0F5803F15D10298002806D0B0F1A1
:10044000805F06D0B0F1005F06D008E0DFF844011D
:100450001DE0DFF844011AE0DFF8400117E0DFF8A3
:100460003C0114E00298002806D0B0F1805F06D06D
:10047000B0F1005F06D008E0DFF8240107E0DFF804
:10048000240104E0DFF8200101E0DFF81C010EBDCB
:1004900010B5FFF7E7FE0400082C02D1DFF80401D5
:1004A0000BE0002C02D1DFF8040106E0102C02D191
:1004B000DFF8FC0001E0FFF7B7FF10BD10B5FFF754
:1004C000E7FF0400FFF7D4FEDFF8E810085CC44043
:1004D000200010BD040C0244040C0244FFFF8CCF2A
:1004E00080B5FFF715FF002802D05FF0F53003E07C
:1004F000FFF7F9FE5FF0EA3002BD10B504002000FE
:10050000FFF7CBFE5FF0EA3010BD10B5040020000D
:1005100000B2FFF7CAFE5FF0EA3010BD2DE9F041EE
:1005200004005FF0EA35FFF7D8FE0600200000B2B5
:10053000864202D15FF0EA300EE0DFF87C70D7F837
:10054000008038F44078FFF7EBFEC7F80080200009
:1005500000B2FFF7BAFE2800BDE8F0811C0C02448F
:10056000200C0244DC0C02448088FFFF10B504001C
:10057000200000B2FFF7A1FE5FF0EA3010BD0000DE
:10058000D80C024424080244CF010008B30100083B
:10059000EB010008801FF605987E9508707F890999
:1005A00000E1F5050044950800688909006CDC024B
:1005B000001BB700EC2B0008F00C024438B50024F7
:1005C000FFF75CFE05002800002803D0B0F1804F43
:1005D00005D008E0FFF772FFC008040003E04FF405
:1005E000FA400400FFE7200032BD2DE9F04104008D
:1005F0000D0016005FF0EA3700F028F88046A047AB
:10060000B0420BD000F022F8B0EB08008542F6D2E1
:10061000A047B042F3D05FF0F53007003800BDE8E6
:10062000F0810EE002684368024408305FEAC37C50
:1006300044BF4B445B1E52F804CB43F804CB091F64
:10064000F9D150F8041B0029ECD17047014800682B
:10065000704700BF5C0000200200116000201062A3
:100660005FF00040D0615FF0EA30704770B506007F
:100670000C00B4F92200B0F5407F3568280000F086
:100680006EF9B0F1EA3F02D05FF0F5304CE028009F
:1006900000F07AF9B0F1EA3F02D05FF0F53043E0C4
:1006A000A86950F00200A861A969DFF8640201405E
:1006B00094F824000143B4F926000143B4F928005A
:1006C0000143B4F92200014394F820000143A961D9
:1006D00094F82000000604D4286930F01000286146
:1006E00003E0286950F0100028612100280000F084
:1006F000BAF8B4F92200B0F5407F04D114F110012A
:10070000280000F0C0F8D5F8C01031F08071606B9F
:100710000143C5F8C0102100300000F0C4F85FF0BC
:100720008040F0615FF0EA3070BD02001068D0F8E0
:1007300080309B099B01C8780343087853EA001373
:10074000487853EA8003887853EA40031068C0F879
:1007500080305FF0EA30704702000B00DBB2DFF858
:10076000B40103605FF0EA3070472DE9F0470600FE
:10077000D6F80090D9F850A0D9F8540010EA0A0A27
:100780005FEA4A6008D5D9F8500050F04000C9F837
:1007900050003000C046C0461AF00705002D08D0B2
:1007A000D9F850002843C9F8500029003000C0464D
:1007B000C0461AF03804002C08D0D9F85000204365
:1007C000C9F8500021003000C046C0465FEACA5058
:1007D0000FD5D9F8D810D9F8E00001408846D9F8EB
:1007E000500050F48070C9F8500041463000C046B7
:1007F000C0461AF4E055002D08D0D9F8500028431F
:10080000C9F8500029003000C046C0465FEA8A504F
:1008100008D5D9F8500050F40070C9F850003000E5
:10082000C046C0465FEA0A600FD5D9F8D410D9F89F
:10083000DC0001400F00D9F8500050F08000C9F8EA
:10084000500039003000C046C0465FEA8A4008D5F3
:10085000D9F8500050F40050C9F850003000C0469C
:10086000C046BDE8F0870B685B1E4A68521E520600
:1008700052EA03428B685B1E52EA0322CB685B1E7E
:100880001343C36170470B685B1E4A68521E52EAED
:1008900003428B685B1E52EA0322CB685B1E52EA5E
:1008A0000312C260704730B41B4B02681B4CA2425B
:1008B00001D113F55473436013F17004846013F194
:1008C000B004C46013F5C474046113F51874446172
:1008D00013F51E748461D2F8805035F4F815CC6A93
:1008E00055EA0445C2F88050D2F8805035F0706562
:1008F0000C6B55EA0465C2F880501C0013F5547562
:10090000AC4203D200252560241DF7E730BC7047B8
:100910001BACFFFF00A5004000AC004000A8004059
:100920002DE9F84304000D0016001F00FFF78EFEAE
:1009300080465FF0EA39A0692840B0420CD1FFF749
:1009400085FEB0EB08008742F5D2A0692840B0428E
:1009500002D15FF05A3081464846BDE8F28310B5B7
:100960000400A06930F01000A0610A2308220821C9
:100970002000FFF7D5FFB0F15A3F02D05FF0EA3018
:1009800001E05FF0F53010BD10B50400A06950F033
:100990000100A0610A23002201212000FFF7C0FF0F
:1009A000B0F15A3F02D05FF0EA3001E05FF0F5307D
:1009B00010BDFEE710B410F00702DFF8E8321C6843
:1009C0004FF6FF010C4054EA0224DFF8DC120C431E
:1009D0001C6010BC7047DFF8CC020068C0F3022036
:1009E00070470000010049B200290AD4012210F02A
:1009F0001F018A40DFF8B432010049B2490943F8C7
:100A00002120704710B4020052B2002A06D40C0113
:100A1000DFF89C32020052B29C5409E00A01DFF870
:100A2000944203005BB213F00F03234403F8042C39
:100A300010BC704770B4030013F00704D4F1070032
:100A4000052801D3042001E0D4F10700251D072D5E
:100A500001D2002600E0E61E012515FA00F0401E36
:100A60000140B14015FA06F6761E324011430800E7
:100A700070BC7047BFF35F8F50F00102DFF838128F
:100A80000A60DFF83822116851F480311160BFF339
:100A90004F8FBFF36F8F7047BFF35F8FDFF81C126C
:100AA000086830F480300860DFF80C1208684008ED
:100AB00040000860BFF34F8FBFF36F8F7047F0B4F3
:100AC0000B00DBB29B080C00E4B214F00304E4005A
:100AD000FF25A5401E00F6B2022E0FD21E00F6B270
:100AE00000EB8606366BAE431700FFB2A7402F40DF
:100AF0003E431F00FFB200EB87073E63F0BC704728
:100B000038B505000C002200D2B22900C9B2DFF8C6
:100B1000B001FFF7D4FF31BD8160C260036170474F
:100B200070B506000C0015002B0022003100DFF824
:100B30009001FFF7F1FF70BD042806D1DFF8842192
:100B4000116851F00401116004E05E4A116831F04F
:100B50000401116070475B48006810F004007047A2
:100B60005849086850F00200086070475549086805
:100B700050F00100086070470100481EB0F1807F0E
:100B800001D3012003E04A1E4F4802600020704755
:100B90004E490860704710B504002000C0B2FFF74E
:100BA00009FF10BD70B506000C001500FFF713FF1C
:100BB0002A00D2B22100C9B2FFF73CFF0100300089
:100BC00040B2FFF71FFF70BD10B50400200040B217
:100BD000FFF708FF10BD38B504000025FFF7BBFF85
:100BE000042802D1FFF76AFC01E0FFF7E7FCB0FB45
:100BF000F4F52800FFF7C0FF012802D15FF0F530BF
:100C000008E00020FFF7C4FFFFF7B0FFFFF7A8FFE1
:100C10005FF0EA3032BD10B504002000C0B2FFF72B
:100C20008BFF10BD80B5C046C04601BD38B505007C
:100C30000C002800C0B22100C9B20843FFF71AFF18
:100C400031BD80B5FFF728FF01BD38B505000C00A8
:100C500054F00F01C9B22800C0B2FFF751FF31BDF7
:100C600038B504000D006A6852095201A87A52EAA8
:100C70004002296849094901287A51EA4001687A05
:100C800001432000C0B2FFF74BFF5FF0EA3032BDF6
:100C90000200D2B20E490A600E4A116851F00101F9
:100CA000116070470CED00E00000FA0500E100E083
:100CB00000E400E018ED00E094ED00E024ED00E039
:100CC00090ED00E010E000E014E000E018E000E04B
:100CD00098ED00E0A0ED00E0DFF87812086850F031
:100CE000800008607047DFF86C12086830F0800000
:100CF00008607047DFF85C22116831F440710143ED
:100D000011607047DFF84C321A6832F4F85202432F
:100D10000A431A607047DFF840020068400910F08B
:100D200001007047DFF830321A6832F06002024387
:100D30000A431A60704751EA0043DFF8202213602B
:100D40007047DFF81822116831F4FE0151EA0041C2
:100D500011607047FF21DFF8080201607047DFF87B
:100D60000002CA21016053210160704730B40D04B4
:100D700015F4700505430C0414F470242543140283
:100D800014F470442543140214F47064254313F0E2
:100D9000F004254313F00F042C43DFF8C8512C60F6
:100DA00030BC704730B4450315F4F0351C0414F41E
:100DB000700425431C0414F470242543140214F415
:100DC00070442543140214F47064254311F0F004B8
:100DD000254311F00F042C43DFF88C512C6030BCFC
:100DE0007047DFF870010068800910F0010070475B
:100DF000DFF860010068400910F001007047DFF87B
:100E00005411086830F020000860704780B5FFF783
:100E1000A1FF5FF0EA3002BD80B5FFF7A0FF5FF0F1
:100E2000EA3002BD10B5FFF7DCFF002812D1FFF752
:100E300053FFFFF70BFC0400FFF7D3FF002809D195
:100E4000FFF704FC001B40F201218842F4D35FF05D
:100E5000F53001E05FF0EA3010BD80B5FFF743FFE9
:100E600000F084F8B0F1EA3F02D05FF0F53001E025
:100E70005FF0EA3002BD10B50400B4F900000028AC
:100E800007D1A1686068FFF756FF0020FFF732FF27
:100E900008E06068FFF755FFB4F90C10B4F90000E2
:100EA000FFF730FF5FF0EA3010BD10B50400617845
:100EB0002078FFF737FF5FF0EA3010BDF8B5040087
:100EC0000D00AB690A266A690A2729690A20D5F844
:100ED00018E05FF00A0CBEFBFCFEB3FBF6FC06FB61
:100EE0001C3353EA0E13D5F814C00A26BCFBF6FCDB
:100EF000B2FBF7F607FB162252EA0C122F690A26FC
:100F0000B7FBF6F7B1FBF0F600FB161151EA07113B
:100F10002868FFF72BFFA3680A2261680A20A768E8
:100F20000A26B7FBF6F7B3FBF2F602FB163353EAD9
:100F30000713627867680A26B7FBF6F7B1FBF0F68D
:100F400000FB161151EA07112078FFF72BFF5FF025
:100F5000EA30F2BD0C780044187800441078004460
:100F600024780044007800440478004410B5FFF76A
:100F7000D2FE00281AD1FFF734FF002816D1FFF760
:100F80003EFFFFF763FB0400FFF732FF00280DD19F
:100F9000FFF75CFB001B40F201218842F4D3FFF70E
:100FA00027FF0028F0D15FF0F53001E05FF0EA3074
:100FB00010BD0000DFF894020068C0F30220704703
:100FC000010049B200290AD4012210F01F018A4011
:100FD000DFF87C32010049B2490943F8212070470B
:100FE00010B4020052B2002A06D40C01DFF86432B9
:100FF000020052B29C5409E00A01DFF85C4203008F
:101000005BB213F00F03234403F8042C10BC7047A9
:1010100070B4030013F00704D4F10700052801D3CE
:10102000042001E0D4F10700251D072D01D2002680
:1010300000E0E61E012515FA00F0401E0140B14017
:1010400015FA06F6761E32401143080070BC704750
:1010500018B4DFF8083253E8004FDFF804120140FB
:101060000C43220043E800210029F2D11968014015
:101070000091009911BC704718B47A4B53E8004FA7
:10108000794901400C43220043E800210029F4D1B2
:10109000196801400091009911BC704770B40300B9
:1010A00053E8005F91FAA1F0B0FA80F00326C0B2D5
:1010B00040008640B54391FAA1F0B0FA80F0C0B28A
:1010C000400012FA00F005432C0043E800400028DD
:1010D000E6D170BC704770B4030013F1240050E8EF
:1010E000005F0800000A90FAA0F0B0FA80F00F2626
:1010F000C0B280008640B5430800000A90FAA0F014
:10110000B0FA80F0C0B2800012FA00F005432C0063
:1011100013F1240545E800400028DED170BC70477B
:10112000016851F001010160704710B404684F4B31
:101130001C400C430460436833F45C531343436026
:1011400010BC7047F0B4049C0C2A2DD2002C2BD07C
:10115000B3F5004F1AD1DFF818C11500EDB25CF8F5
:101160002550B1FBF5F56D00B5FBF4F56D1CADB286
:101170002E004FF6F07C1CEA060C3500C5F3420544
:10118000ADB255EA0C0C6746C7600DE0DFF8E0C071
:101190001500EDB25CF82550B1FBF5F515EB5405E3
:1011A000B5FBF4F5ADB2C560F0BC7047416831F4F1
:1011B00090414160816831F02A01816070477CB5BF
:1011C0005FF40020FFF758FF2A4C2000FFF7EEFFE6
:1011D0000C25002229002000FFF7A7FF5FF4E13073
:1011E00000900023002224492000FFF7ABFF0420D9
:1011F000FFF72EFF214E08224FF400613000FFF769
:101200006AFF08224FF480613000FFF764FF02227A
:101210004FF400613000FFF741FF02224FF480617C
:101220003000FFF73BFFFFF7C5FE00220021FFF76C
:10123000EFFE01003620FFF7D3FE3620FFF7C0FE99
:101240002000FFF76DFF200076BD00000CED00E0F0
:1012500000E100E000E400E018ED00E08C0C024446
:101260009F0C06009C0C02447168BA01F369FFEF01
:10127000FC290008004C0040004495080008024288
:10128000DFF894020068C0F302207047010049B201
:1012900000290AD4012210F01F018A40DFF87C32B5
:1012A000010049B2490943F82120704710B40200F7
:1012B00052B2002A06D40C01DFF86432020052B2A6
:1012C0009C5409E00A01DFF85C4203005BB213F0B2
:1012D0000F03234403F8042C10BC704770B40300C0
:1012E00013F00704D4F10700052801D3042001E01E
:1012F000D4F10700251D072D01D2002600E0E61ECF
:10130000012515FA00F0401E0140B14015FA06F61D
:10131000761E32401143080070BC704718B4DFF8E5
:10132000083253E8004FDFF8041201400C4322005A
:1013300043E800210029F2D1196801400091009989
:1013400011BC704718B47A4B53E8004F79490140FB
:101350000C43220043E800210029F4D11968014020
:101360000091009911BC704770B4030053E8005F0E
:1013700091FAA1F0B0FA80F00326C0B24000864096
:10138000B54391FAA1F0B0FA80F0C0B2400012FA71
:1013900000F005432C0043E800400028E6D170BC73
:1013A000704770B4030013F1240050E8005F080098
:1013B000000A90FAA0F0B0FA80F00F26C0B28000C8
:1013C0008640B5430800000A90FAA0F0B0FA80F019
:1013D000C0B2800012FA00F005432C0013F124057E
:1013E00045E800400028DED170BC7047016851F02C
:1013F00001010160704710B404684F4B1C400C435E
:101400000460436833F45C531343436010BC70477B
:10141000F0B4049C0C2A2DD2002C2BD0B3F5004F35
:101420001AD1DFF818C11500EDB25CF82550B1FBF8
:10143000F5F56D00B5FBF4F56D1CADB22E004FF661
:10144000F07C1CEA060C3500C5F34205ADB255EA46
:101450000C0C6746C7600DE0DFF8E0C01500EDB288
:101460005CF82550B1FBF5F515EB5405B5FBF4F52B
:10147000ADB2C560F0BC7047416831F49041416045
:10148000816831F02A01816070477CB54FF480405B
:10149000FFF758FF2A4C2000FFF7EEFF0C25002233
:1014A00029002000FFF7A7FF5FF4E1300090002340
:1014B000002224492000FFF7ABFF0120FFF72EFF99
:1014C000214E07224FF480613000FFF76AFF0722A8
:1014D0004FF400713000FFF764FF02224FF4806187
:1014E0003000FFF741FF02224FF400713000FFF798
:1014F0003BFFFFF7C5FE00220021FFF7EFFE0100D2
:101500003320FFF7D3FE3320FFF7C0FE2000FFF7A4
:101510006DFF200076BD00000CED00E000E100E072
:1015200000E400E018ED00E08C0C02449F0C060083
:10153000A40C024400780101F369FFEF3C2A000883
:10154000003801400044950800000242DFF88002A4
:101550000068C0F302207047010049B200290AD494
:10156000012210F01F018A40DFF86832010049B201
:10157000490943F82120704710B4020052B2002AF2
:1015800006D40C01DFF85032020052B29C5409E03C
:101590000A01DFF8484203005BB213F00F03234453
:1015A00003F8042C10BC704770B4030013F0070458
:1015B000D4F10700052801D3042001E0D4F107008D
:1015C000251D072D01D2002600E0E61E012515FA93
:1015D00000F0401E0140B14015FA06F6761E32407A
:1015E0001143080070BC704718B47D4B53E8004F9E
:1015F0007C4901400C43220043E800210029F4D13A
:10160000196801400091009911BC704718B4764BDD
:1016100053E8004F754901400C43220043E8002184
:101620000029F4D1196801400091009911BC70475C
:1016300070B4030053E8005F91FAA1F0B0FA80F0B3
:101640000326C0B240008640B54391FAA1F0B0FA3B
:1016500080F0C0B2400012FA00F005432C0043E8CD
:1016600000400028E6D170BC704770B4030013F14D
:10167000200050E8005F91FAA1F0B0FA80F00F2648
:10168000C0B280008640B54391FAA1F0B0FA80F074
:10169000C0B2800012FA00F005432C0013F12005BF
:1016A00045E800400028E2D170BC7047016851F065
:1016B00001010160704710B404684D4B1C400C439D
:1016C0000460436833F45C531343436010BC7047B9
:1016D000F0B4049C0C2A2DD2002C2BD0B3F5004F73
:1016E0001AD1DFF810C11500EDB25CF82550B1FB3E
:1016F000F5F56D00B5FBF4F56D1CADB22E004FF69F
:10170000F07C1CEA060C3500C5F34205ADB255EA83
:101710000C0C6746C7600DE0DFF8D8C01500EDB2CD
:101720005CF82550B1FBF5F515EB5405B5FBF4F568
:10173000ADB2C560F0BC7047416831F49041416082
:10174000816831F02A01816070477CB55FF4003018
:10175000FFF75CFF284C2000FFF7EEFF0C2500226E
:1017600029002000FFF7A7FF5FF4E130009000237D
:10177000002222492000FFF7ABFF0120FFF734FFD2
:101780001F4E072208213000FFF76FFF07220421B8
:101790003000FFF76AFF022208213000FFF748FF00
:1017A000022204213000FFF743FFFFF7CFFE0022A3
:1017B0000021FFF7F9FE01003420FFF7DDFE3420A1
:1017C000FFF7CAFE2000FFF771FF200076BD000082
:1017D0000CED00E000E100E000E400E018ED00E0C6
:1017E0008C0C02449F0C06009C0C02447168BA01E8
:1017F000F369FFEF7C2A000800440040004495088C
:101800000000024270B4030053E8005F91FAA1F0B7
:10181000B0FA80F00326C0B240008640B54391FA8A
:10182000A1F0B0FA80F0C0B2400012FA00F0054317
:101830002C0043E800400028E6D170BC704730B46B
:10184000031D53E8005F8D4302FB01F31D432C0091
:10185000051D45E80043002BF2D130BC704770B441
:10186000030013F1080050E8005F91FAA1F0B0FA0C
:1018700080F00326C0B240008640B54391FAA1F043
:10188000B0FA80F0C0B2400012FA00F005432C001C
:1018900013F1080545E800400028E2D170BC70470C
:1018A00070B4030013F10C0050E8005F91FAA1F04E
:1018B000B0FA80F00326C0B240008640B54391FAEA
:1018C000A1F0B0FA80F0C0B2400012FA00F0054377
:1018D0002C0013F10C0545E800400028E2D170BC53
:1018E000704770B4030013F1200050E8005F91FAD4
:1018F000A1F0B0FA80F00F26C0B280008640B54358
:1019000091FAA1F0B0FA80F0C0B2800012FA00F0B3
:1019100005432C0013F1200545E800400028E2D1E2
:1019200070BC704770B4030013F1240050E8005FEE
:101930000800000A90FAA0F0B0FA80F00F26C0B2BA
:1019400080008640B5430800000A90FAA0F0B0FA83
:1019500080F0C0B2800012FA00F005432C0013F1B1
:10196000240545E800400028DED170BC704712F025
:101970000103D3F101031B0111FA03F383617047E3
:101980002DE9F14F82B08B4615005C46029F95F819
:1019900000802879019094FAA4F0B0FA80F00090C9
:1019A0005FF00109DDF800A019FA0AFAB8F1010F99
:1019B00004D16A7959463800FFF7D9FF002C40D08E
:1019C0005646B8F1010F02D0B8F1020F09D1AA783A
:1019D00031003800FFF743FFEA7831003800FFF7A5
:1019E0002EFFB8F1030F05D1B8F1030F07D16878C6
:1019F000012804D06A7831003800FFF751FFB8F1B0
:101A0000020F0DD1B6F5807F05D2019A3100380062
:101A1000FFF767FF04E0019A31003800FFF782FF0B
:101A2000424631003800FFF7EDFE34EA0A0494FA2A
:101A3000A4F0B0FA80F00090009819FA00F0824605
:101A4000BCE75FF0EA30BDE8FE8F000018B4864BBB
:101A500053E8004F854901400C43220043E8002130
:101A60000029F4D1196801400091009911BC704718
:101A700018B47F4B53E8004F7E4901400C432200CD
:101A800043E800210029F4D1196801400091009930
:101A900011BC704770B4030053E8005F91FAA1F0E5
:101AA000B0FA80F00326C0B240008640B54391FAF8
:101AB000A1F0B0FA80F0C0B2400012FA00F0054385
:101AC0002C0043E800400028E6D170BC704770B499
:101AD000030013F1080050E8005F91FAA1F0B0FA9A
:101AE00080F00326C0B240008640B54391FAA1F0D1
:101AF000B0FA80F0C0B2400012FA00F005432C00AA
:101B000013F1080545E800400028E2D170BC704799
:101B100070B4030013F10C0050E8005F91FAA1F0DB
:101B2000B0FA80F00326C0B240008640B54391FA77
:101B3000A1F0B0FA80F0C0B2400012FA00F0054304
:101B40002C0013F10C0545E800400028E2D170BCE0
:101B5000704770B4030013F1200050E8005F91FA61
:101B6000A1F0B0FA80F00F26C0B280008640B543E5
:101B700091FAA1F0B0FA80F0C0B2800012FA00F041
:101B800005432C0013F1200545E800400028E2D170
:101B900070BC704730B4C46812F01053B3F1806F5A
:101BA0000CD1530201D5E30003D5530206D4E30060
:101BB00004D5036853F48053036003E0036833F4EF
:101BC0008053036085682C4B1D400D438560C568BC
:101BD0002A4B1D401543C56030BC7047F8B54FF423
:101BE0008050FFF745FF264F5FF08864254D2200A7
:101BF00039002800FFF7CEFF0220FFF727FF224E13
:101C0000022220213000FFF762FF0222082130006B
:101C1000FFF75DFF022210213000FFF758FF00227E
:101C200010213000FFF774FF052220213000FFF75C
:101C300090FF052208213000FFF78BFF05221021BD
:101C40003000FFF786FF022220213000FFF722FF3D
:101C5000022208213000FFF71DFF02221021300070
:101C6000FFF718FF2800F2BD8C0C02449F0C060001
:101C7000A40C024400780101E0FFFF0FFFFF39D8F8
:101C800007000030003001400004024218B47A4BD3
:101C900053E8004F794901400C43220043E80021FA
:101CA0000029F4D1196801400091009911BC7047D6
:101CB00018B4734B53E8004F724901400C432200A3
:101CC00043E800210029F4D11968014000910099EE
:101CD00011BC704770B4030053E8005F91FAA1F0A3
:101CE000B0FA80F00326C0B240008640B54391FAB6
:101CF000A1F0B0FA80F0C0B2400012FA00F0054343
:101D00002C0043E800400028E6D170BC704770B456
:101D1000030013F1080050E8005F91FAA1F0B0FA57
:101D200080F00326C0B240008640B54391FAA1F08E
:101D3000B0FA80F0C0B2400012FA00F005432C0067
:101D400013F1080545E800400028E2D170BC704757
:101D500070B4030013F1240050E8005F0800000A8B
:101D600090FAA0F0B0FA80F00F26C0B28000864052
:101D7000B5430800000A90FAA0F0B0FA80F0C0B2B3
:101D8000800012FA00F005432C0013F1240545E809
:101D900000400028DED170BC704730B4C46812F037
:101DA0001053B3F1806F0CD1530201D5E30003D57A
:101DB000530206D4E30004D5036853F48053036050
:101DC00003E0036833F48053036085682E4B1D40A5
:101DD0000D438560C5682D4B1D401543C56030BC63
:101DE0007047F8B54FF48040FFF762FF284F5FF06F
:101DF0008864284D220039002800FFF7CEFF02201A
:101E0000FFF744FF244E02224FF400413000FFF759
:101E10007EFF02224FF480413000FFF778FF02225C
:101E20004FF400513000FFF772FF05224FF40041DC
:101E30003000FFF78DFF05224FF480413000FFF79F
:101E400087FF05224FF400513000FFF781FF022287
:101E50004FF400413000FFF73DFF02224FF4804174
:101E60003000FFF737FF02224FF400513000FFF738
:101E700031FF2800F2BD00008C0C02449F0C0600CC
:101E80009C0C02447168BA01E0FFFF0FFFFF39D8D4
:101E900007000030003800400004024218B45B4BD9
:101EA00053E8004F5A4901400C43220043E8002107
:101EB0000029F4D1196801400091009911BC7047C4
:101EC00018B4544B53E8004F10F402710C43220035
:101ED00043E800210029F4D11968014000910099DC
:101EE00011BC704780B50120FFF7D8FF01BD80B558
:101EF0004FF40070FFF7E4FF01BD18B595B0FFF790
:101F0000F6FF454C45492000FEF7A6FBB0F1EA3F3D
:101F100001D0002071E00020FEF7EFFAB0F1EA3FB7
:101F200001D0002069E001200390E52005903A20CF
:101F300006900120049007A803A9102200F072F86F
:101F40000020ADF83E0000208DF83C0040208DF8C8
:101F500040000020ADF842004FF48050ADF844003E
:101F600000201290002013900020149007A9200058
:101F7000FEF77CFBB0F1EA3F01D000203DE00021FC
:101F80002000FEF7E9FBB0F1EA3F01D0002034E089
:101F900000208DF8000000208DF8010001208DF850
:101FA000020001208DF8030069462000FEF7BDFB0A
:101FB000B0F1EA3F01D000201FE0FFF793FF0220BD
:101FC0008DF8040000208DF8070000208DF8050032
:101FD00000208DF8060009208DF8080001AA4FF4B2
:101FE000C0510F48FFF7CCFC002200212220FEF751
:101FF000D9FD2220FEF7E8FD200016B010BD80B507
:102000000548FEF7B2FB01BD000000008C0C024445
:102010009F0C0600A00C02440C00002000A400400D
:1020200000000242103A07D330B4B1E83810103A39
:10203000A0E83810F9D230BC530724BFB1E808102B
:10204000A0E8081044BF51F8043B40F8043BD20715
:1020500024BF31F8022B20F8022B44BF0B78037009
:102060007047083A07D3B1E80810083A40F8043B33
:1020700040F804CBF7D25307E4E7000018B44B4B09
:1020800053E8004F4A4901400C43220043E8002135
:102090000029F4D1196801400091009911BC7047E2
:1020A00080B50120FFF7EAFF01BD80B50220FFF7F0
:1020B000E5FF01BD80B50420FFF7E0FF01BD1CB5C1
:1020C000FFF7EEFFFFF7F1FFFFF7F4FF01208DF8B8
:1020D000000000208DF8020000208DF80100002093
:1020E0008DF8030000208DF80500324C6A464FF44D
:1020F00080712000FFF744FCB0F1EA3F02D05FF0AE
:102100006D3052E001208DF8000000208DF80200B3
:1021100001208DF8010000208DF8030000208DF8CB
:1021200005006A464FF400412000FFF729FCB0F19A
:10213000EA3F02D05FF06D3037E001208DF80000FB
:1021400000208DF8020000208DF8010000208DF89D
:10215000030000208DF805006A464FF49E51164892
:10216000FFF70EFCB0F1EA3F02D05FF06D301CE0EB
:1021700001208DF8000000208DF8020000208DF86D
:10218000010000208DF8030000208DF805006A464C
:102190004FF471710948FFF7F3FBB0F1EA3F02D049
:1021A0005FF06D3001E05FF0EA3016BD8C0C024448
:1021B0009F0C060000000242000402420008024296
:1021C00080B55FF0EA30B0F1EA3F02D05FF0F53061
:1021D0008BE000F091F8B0F1EA3F02D05FF03C30C4
:1021E00083E000F0BDF8B0F1EA3F02D05FF0963036
:1021F0007BE000F0E5F8B0F1EA3F02D05FF05A3042
:1022000073E000F0F9F8002802D15FF096306CE03E
:1022100000F0FFF8002100F014F9B0F1EA3F02D01D
:102220005FF0963061E000F01DF9B0F1EA3F02D0B6
:102230005FF0A53059E000F06DF9B0F1EA3F02D04F
:102240005FF0A53051E000F09DF9002802D15FF069
:102250006D304AE0FFF751FE002802D15FF06D308B
:1022600043E0FFF72CFFB0F1EA3F02D05FF06D30A2
:102270003BE000F0E5F9002802D15FF06D3034E07A
:1022800000F00CFAB0F1EA3F02D05FF06D302CE0C4
:10229000FFF7A4FC002802D15FF06D3025E0FFF7C6
:1022A000A0FD002802D15FF06D301EE0FFF7EDF8D1
:1022B000002802D15FF06D3017E0FFF746FA0028E2
:1022C00002D15FF06D3010E0FEF779FF002802D1F7
:1022D0005FF06D3009E05FF0EA30B0F1EA3F02D024
:1022E0005FF0B23001E05FF0EA3002BD80B500F08F
:1022F00047FAFEF797FC01BDE0B5FEF7A2FC4021CE
:102300000020FEF7A2FC0C210022684600F044FAEF
:102310000D4800907FF07740019003208DF8080071
:1023200001208DF8090000208DF80A006946002080
:10233000FEF796FC0020FEF7ABFC04210020FEF720
:1023400075FC5FF0EA300EBD00E0FF08164800683B
:1023500010F00F007047016851F480710160704700
:1023600010B51248FFF7F7FFFEF792F80400FFF7E9
:10237000EDFF0F49085CC4400E4804600420FEF7DE
:102380004AFC0320FEF707FC00F001F810BD80B501
:10239000FEF794F807490860074801680748007885
:1023A00000F02EFA02BD0000200C02440020024082
:1023B000EC2B000804000020000000200800002092
:1023C00080B50B49086850F4803008600320FEF7A0
:1023D000E2FB002200217FF00300FEF7E3FB002276
:1023E00000217FF00100FEF7DDFB5FF0EA3002BD67
:1023F000FCED00E0FEE7000010B5074C07492000A7
:1024000000F017F8B0F1EA3F01D0002000E0200012
:1024100010BD014870470000540000200004034034
:10242000016851F001010160704782680A438260CF
:102430007047020011605FF0004050605FF0EA30CA
:10244000704770B504000D005FF080406060266842
:1024500029003000FFF7E9FF3000FFF7E1FF5FF0F0
:10246000EA3070BD1FB5FDF761FFB0F1EA3F02D061
:102470005FF0A5304AE05FF4003001905FF4801017
:1024800002905FF08050039001A8FDF771FFB0F15A
:10249000EA3F02D05FF0A53038E0FDF75BFFB0F116
:1024A000EA3F02D05FF0A53030E000208DF8000058
:1024B00000208DF8010000208DF8020000208DF82A
:1024C00003006846FDF7A0FFB0F1EA3F02D05FF0DD
:1024D000A5301BE00E4C0421200000F0C5F90320BC
:1024E000FDF76FFFB0F1EA3F02D05FF0A5300DE0DD
:1024F0002021200000F0C3F9FFF749FFB0F1EA3FC7
:1025000002D05FF0A53001E05FF0EA3004B010BD0A
:102510000020024080B5FDF713FFB0F1EA3F02D082
:102520005FF0A5300BE04FF40050FEF71FF8B0F15C
:10253000EA3F02D05FF0A53001E05FF0EA3002BD73
:1025400018B4394B53E8004F384901400C4322007E
:1025500043E800210029F4D1196801400091009955
:1025600011BC704780B50120FFF7EAFF01BD80B5BF
:102570000420FFF7E5FF01BD80B54FF48060FFF751
:10258000DFFF01BD18B587B0FFF7F6FF4FF480609D
:10259000FDF7BBFFB0F1EA3F01D0002041E0244C41
:1025A0002449200000F098F9B0F1EA3F01D0002062
:1025B00037E000208DF800000020ADF802006946E9
:1025C000200000F094F90020ADF80C0001208DF8F7
:1025D0001000002005900020ADF818004FF4805046
:1025E000ADF81A0003A9200000F098F9FFF7BAFF30
:1025F000FFF7BDFF03208DF8040000208DF80500D3
:1026000001AAF3210C48FFF7BBF903208DF8040061
:1026100000208DF8050001AA18210848FFF7B0F93D
:10262000200008B010BD00008C0C02449F0C060076
:1026300030000020008002420000024200080242F6
:1026400010B5064C0649200000F0B7F9B0F1EA3F9A
:1026500001D0002000E0200010BD00004800002054
:102660000030004018B4084B53E8004F07490140C0
:102670000C43220043E800210029F4D119680140ED
:102680000091009911BC7047A80C02444208200038
:1026900080B55FF40010FFF7E5FF01BD00B58FB016
:1026A00000F0A5F94FF40070FDF738FFB0F1EA3FF4
:1026B00002D05FF0A53060E0FFF7EAFFFDF710FF02
:1026C000FEF7AAFBB0F1EA3F02D05FF06D3054E0B4
:1026D000FEF7A8FBB0F1EA3F02D05FF06D304CE0AE
:1026E0000020ADF810007F200590FF20069004A880
:1026F000FEF7C1FBB0F1EA3F02D05FF06D303CE085
:1027000000208DF8000000208DF801006846FEF7DB
:10271000CCFBB0F1EA3F02D05FF06D302DE001203C
:102720008DF8040001208DF80500012002900020A2
:1027300003900020089000200C9000200D900020B5
:102740000E9008A901A8FEF7B9FBB0F1EA3F02D04C
:102750005FF06D3011E0FEF780FBB0F1EA3F02D090
:102760005FF06D3009E0FEF751FBB0F1EA3F02D0B7
:102770005FF06D3001E05FF0EA300FB000BD0000A7
:1027800003490A680348007882180A60704700BF4E
:102790005C0000200800002062F30F2262F31F4259
:1027A000401810F0030308D0C91A1FD3DB0748BF35
:1027B00000F8012D28BF20F8022D130030B4144674
:1027C0001546103928BF20E93C00FAD8490728BF30
:1027D00020E90C0048BF40F8042D890028BF20F8EC
:1027E000022D48BF00F8012D30BC7047C91818BF32
:1027F00000F8012DCB0728BF00F8012D704700001D
:10280000F8B507000C005FF0F5350F4E3078002862
:1028100017D04FF47A713800C0B2B1FBF0F0FEF778
:10282000DAF9B0F1EA3F0CD1377000222100C9B2C9
:102830005FF0FF30FEF7B6F9044804605FF0EA305D
:1028400005002800F2BD00BF0800002000000020A5
:102850000268120912010A4302607047026832F0EE
:1028600030020A430260704738B505000C002100B1
:10287000C9B22800FFF7ECFF5FF0EA3032BD38B58F
:1028800005000C002100C9B22800FFF7E7FF5FF048
:10289000EA3032BDC26832F00C020A43C2607047AF
:1028A000C26832F47E620A43C2607047C26832F482
:1028B00040620A43C2607047026932F420420A4310
:1028C00002617047006910F420407047026B1209E2
:1028D00012010A4302637047020011605FF000407A
:1028E00050609060D06010615FF0EA307047F8B5DA
:1028F00004000D005FF0EA36276829783800FFF7FA
:10290000C9FF69883800FFF7D7FF6068B0F1004F52
:1029100002D15FF0804060603000F2BDF8B5060083
:102920000C005FF0EA35B4F9000000283768B4F90C
:102930000C00002807D03800FFF7C4FF002802D0A1
:102940005FF0F5300500B4F900103800FFF7A8FF7C
:10295000B4F90000002804D0B4F902103800FFF7E1
:10296000A5FF2179491E3800FFF7B0FFF968DFF8AD
:102970003C000140B4F90C000143A0680143B4F9E4
:102980000E000143F960B4F90000002806D1B4F943
:102990000C00002802D10020307501E001203075C4
:1029A0005FF08040B0602800F2BD0000FCCFF0FF77
:1029B000C068000A10F00100704738B504000D002F
:1029C00025602068FFF7F4FF012803D15FF0004085
:1029D000A06002E05FF08040A0605FF0EA3032BDAE
:1029E000DFF81410086850F001000860704780B5E7
:1029F000FFF7F6FF01BD00002408024401000000BB
:102A000002000000040000000600000008000000B2
:102A10000A0000000C000000100000002000000070
:102A200040000000800000000001000000010000E4
:102A30000001000000010000000100000100000092
:102A40000200000004000000060000000800000072
:102A50000A0000000C000000100000002000000030
:102A600040000000800000000001000000010000A4
:102A70000001000000010000000100000100000052
:102A80000200000004000000060000000800000032
:102A90000A0000000C0000001000000020000000F0
:102AA0004000000080000000000100000001000064
:102AB00000010000000100000001000030B400240B
:102AC00012E050F8043BDA0744BF4B445B1E091F79
:102AD000042943F8044BFAD21A468D0744BF1C80E0
:102AE000921CCB0748BF147050F8041B0029E8D192
:102AF00030BC704710B5034A7A440832024C7C441B
:102B0000A41D03E0C4000000E400000004E011681C
:102B1000101D114488470246A242F8D110BD0000A2
:102B200080B5064880F30988054880F30A8880F359
:102B30000B8800F00AF800F011F801BD60040020D5
:102B40006000002003490860704780B50248FFF725
:102B5000F9FF01BD08ED00E000000008054801464E
:102B600003B4684680F30988AFF30080AFF30080B8
:102B700000F002F8A5EDF5FE0120C046002801D0C6
:102B8000FFF7B8FFAFF300800020AFF3008000F044
:102B900002F800F00BF880B5FFF712FBB0F1EA3F46
:102BA00002D05FF0FF3000E0FEE702BD00F000B8A9
:102BB0000746384600F002F8FBE700002021090331
:102BC00026311820ABBEF9E7F5FEFFFF54000000E8
:102BD0000C000020000000004BDAFFFF0C0000009A
:102BE0001C000000000000200000000000000000A9
:102BF0000000000001020304060708090F0000009E
:102C0000006CDC020100000080B500F001F801BD9D
:022C1000FEE7DD
:0400000508002B5D67
:00000001FF
